:040000004DEF00F0D0
:100008003782FACF1AF0FBCF1BF0E9CF1CF0EACF0A
:100018001DF0E1CF1EF0E2CF1FF0D9CF20F0DACFEC
:1000280021F0F3CF22F0F4CF23F0F6CF24F0F7CF6E
:1000380025F0F8CF26F0F5CF27F00E01C5A904D09A
:100048000E01CDB9E7EC08F00E01C6A104D00E01EF
:10005800CEB1C6EC08F027C0F5FF26C0F8FF25C0D2
:10006800F7FF24C0F6FF23C0F4FF22C0F3FF21C02E
:10007800DAFF20C0D9FF1FC0E2FF1EC0E1FF1DC08C
:10008800EAFF1CC0E9FF1BC0FBFF1AC0FAFF37924A
:0C0098001100818E50EF00F0A7EF08F07F
:100F000000CA11C811C611C411C211C011C211C248
:100F100011C211C211BE11C211C211C211C211C23D
:100F20001100000E876E000E866E000E836E020E9C
:100F3000846E000E856E070E8C6E8868FE0E896EBC
:100F40008A68010E8B6E7F0E0F01216F800E0F01DC
:100F5000196F000E0F01266F070E0F012E6FFE0E88
:100F60000F01116F0F0125690F0E0F012D6F000E7C
:100F70000F01186FFE0E0F01106F770E0F01206F1B
:100F8000000E0F012C6F000E0F010F6F000E0F01EE
:100F9000176F000E0F011F6F000E0F01246F000E60
:100FA000F2BE010E286EF29E550E0E01A06FAA0E23
:100FB0000E01A06F0E01A091090E0E01EF6F550EEC
:100FC0000E01A06FAA0E0E01A06F0E01A08128A035
:100FD00002D0F28E1200F29E12001904D8A410D092
:100FE000000E196E114A122A010E136E1128F5E136
:100FF0001228D8A4F2D7000E126E010E116EEDD792
:101000001304D8A4EAD7000E136E11C028F012C042
:1010100029F04CEC08F02F6E2F50020D010EF32436
:10102000F66E0F0EF420F76EF86A000EF822090033
:10103000F5CF30F00900F5CF31F001D8CED705005B
:10104000FA6E3050FD6E3150FE6EFF6AFA5012009B
:10105000000ECF6E000ED06E000ED16E010ED26E5D
:10106000FC0ECE6EE00ECD6ECD50CECF2AF02B6AA8
:101070002AC02BF02A6A2A10346E2B50356E0E01CE
:10108000CE910E01C681B40E286E110E296ED5ECDC
:1010900008F0DDEC08F01200010E2D6E000E2E6E31
:1010A000000E2E6E12D02EC02AF028C02BF029C0C0
:1010B0002CF02A2A03D0D8902C322B322A2EFBD7A0
:1010C0002BA002D0000E2D6E2E2A0F0E2E6003D004
:1010D0002D04D8B4E8D72E0412000E01C59B0E01D2
:1010E000C599080E9F6E800E9D6E650E9E6E3F0E1A
:1010F0009B6E000E9C6E000E176E000E186E080E92
:10110000366E000E156E000E166E000E146E120076
:10111000600E0E01D86F400E0E01DA6F000E0E0148
:10112000DC6F080E0E01DE6F000E0E01DD6F120087
:1011300032503310D8B4120001D812000500FA6EF4
:101140003250FD6E3350FE6EFF6AFA50120000EE10
:1011500001F0190EEE6AE806FDE1379037920001C2
:10116000BDEF08F0CFEC08F091EC07F088EC08F048
:1011700028EC08F06DEC08F01200B2EC08F0E6EC98
:1011800008F0F28EF28CEDEC07F0F9D70E01CE915B
:101190003550CE6E34C0CDFF98EC08F01200F28AC4
:1011A0000E01BD890E01BE81120028C032F029C097
:1011B00033F01200010E196E1200CF8012001200DF
:1011C000120012001200120012001200120012008F
:020000040020DA
:10000000FF0FFF0FFF0FFF0FFF0FFF0FFF0FFF0F80
:020000040030CA
:0C0000008CFFFFFF9FFFFFDFFFFFFFFFF3
:00000001FF
