:0400000046EF00F0D7
:100008002182FACF01F0FBCF02F0E9CF03F0EACF6B
:1000180004F0E1CF05F0E2CF06F0D9CF07F0DACF50
:1000280008F0F3CF09F0F4CF0AF0F6CF0BF0F7CFD2
:100038000CF0F8CF0DF0F5CF0EF00E01C6A104D0EC
:100048000E01CEB1B1EC08F00EC0F5FF0DC0F8FFFF
:100058000CC0F7FF0BC0F6FF0AC0F4FF09C0F3FF9E
:1000680008C0DAFF07C0D9FF06C0E2FF05C0E1FFFC
:1000780004C0EAFF03C0E9FF02C0FBFF01C0FAFFAA
:0E00880021921100818E49EF00F096EF08F0F2
:100F000000A411A211A0119E119C1190119C119C82
:100F1000119C119C119A119C119C119C119C119C6B
:100F20001100000E876E000E866E000E836E000E9E
:100F3000846E000E856E070E8C6E8868780E896E42
:100F40008A688B687F0E0F01216F000E0F01196FE9
:100F5000000E0F01266F070E0F012E6FFE0E0F0100
:100F6000116F0F0125690F0E0F012D6F000E0F017C
:100F7000186FFE0E0F01106F770E0F01206F000E1D
:100F80000F012C6F000E0F010F6F000E0F01176F76
:100F9000000E0F011F6F000E0F01246F12002004BE
:100FA000D8A410D0000E206E1D4A1E2A010E1F6EFE
:100FB0001D28F5E11E28D8A4F2D7000E1E6E010EE2
:100FC0001D6EEDD71F04D8A4EAD7000E1F6E1DC0FA
:100FD0000FF01EC010F056EC08F0166E1650020D01
:100FE000010EF324F66E0F0EF420F76EF86A000E71
:100FF000F8220900F5CF17F00900F5CF18F001D855
:10100000CED70500FA6E1750FD6E1850FE6EFF6ABF
:10101000FA50120084A002D0010E01D0000EFF0A87
:101020000F6E84500F18FE0B0F18846E84A202D02E
:10103000010E01D0000EFF0A0F6E0F4684500F18EC
:10104000FD0B0F18846E84A402D0010E01D0000E97
:10105000FF0A0F6E0F460F4684500F18FB0B0F1838
:10106000846E1200000ECF6E000ED06E000ED16E98
:10107000010ED26EE00ECE6EC00ECD6ECD50CECF34
:1010800011F0126A11C012F0116A11101B6E125089
:101090001C6E0E01CE910E01C6817E0E0F6E110EDA
:1010A000106EBAEC08F0CBEC08F01200010E146ED2
:1010B000000E156E000E156E12D015C011F00FC087
:1010C00012F010C013F0112A03D0D890133212324C
:1010D000112EFBD712A002D0000E146E152A0F0E8F
:1010E000156003D01404D8B4E8D715041200600EBC
:1010F0000E01D86F400E0E01DA6F000E0E01DC6F8C
:10110000080E0E01DE6F000E0E01DD6F1200195089
:101110001A10D8B4120001D812000500FA6E195046
:10112000FD6E1A50FE6EFF6AFA501200206A1F6AA6
:101130001E6A1D6A2190219200019FEF08F0A8EC21
:1011400008F0D3EC08F0F28EF28CCFEC07F0F9D770
:10115000C4EC08F091EC07F077EC08F032EC08F002
:1011600012000E01CE911C50CE6E1BC0CDFF87EC3D
:1011700008F012000FC019F010C01AF012000E0192
:10118000CE91010E206E1200F28A0E01BE81120075
:101190000AEC08F01200CF801200120012001200B8
:0811A0001200120012001200FF
:020000040020DA
:10000000FF0FFF0FFF0FFF0FFF0FFF0FFF0FFF0F80
:020000040030CA
:0C0000008CDFFFDF9FFFFFDFFFFFFFFF33
:00000001FF
